{
  "_format": "hh-sol-artifact-1",
  "contractName": "AIFlowAgent",
  "sourceName": "contracts/AIFlowAgent.sol",
  "abi": [
    {
      "inputs": [],
      "stateMutability": "nonpayable",
      "type": "constructor"
    },
    {
      "inputs": [
        {
          "internalType": "address",
          "name": "sender",
          "type": "address"
        },
        {
          "internalType": "uint256",
          "name": "tokenId",
          "type": "uint256"
        },
        {
          "internalType": "address",
          "name": "owner",
          "type": "address"
        }
      ],
      "name": "ERC721IncorrectOwner",
      "type": "error"
    },
    {
      "inputs": [
        {
          "internalType": "address",
          "name": "operator",
          "type": "address"
        },
        {
          "internalType": "uint256",
          "name": "tokenId",
          "type": "uint256"
        }
      ],
      "name": "ERC721InsufficientApproval",
      "type": "error"
    },
    {
      "inputs": [
        {
          "internalType": "address",
          "name": "approver",
          "type": "address"
        }
      ],
      "name": "ERC721InvalidApprover",
      "type": "error"
    },
    {
      "inputs": [
        {
          "internalType": "address",
          "name": "operator",
          "type": "address"
        }
      ],
      "name": "ERC721InvalidOperator",
      "type": "error"
    },
    {
      "inputs": [
        {
          "internalType": "address",
          "name": "owner",
          "type": "address"
        }
      ],
      "name": "ERC721InvalidOwner",
      "type": "error"
    },
    {
      "inputs": [
        {
          "internalType": "address",
          "name": "receiver",
          "type": "address"
        }
      ],
      "name": "ERC721InvalidReceiver",
      "type": "error"
    },
    {
      "inputs": [
        {
          "internalType": "address",
          "name": "sender",
          "type": "address"
        }
      ],
      "name": "ERC721InvalidSender",
      "type": "error"
    },
    {
      "inputs": [
        {
          "internalType": "uint256",
          "name": "tokenId",
          "type": "uint256"
        }
      ],
      "name": "ERC721NonexistentToken",
      "type": "error"
    },
    {
      "inputs": [
        {
          "internalType": "address",
          "name": "owner",
          "type": "address"
        }
      ],
      "name": "OwnableInvalidOwner",
      "type": "error"
    },
    {
      "inputs": [
        {
          "internalType": "address",
          "name": "account",
          "type": "address"
        }
      ],
      "name": "OwnableUnauthorizedAccount",
      "type": "error"
    },
    {
      "anonymous": false,
      "inputs": [
        {
          "indexed": true,
          "internalType": "address",
          "name": "owner",
          "type": "address"
        },
        {
          "indexed": true,
          "internalType": "address",
          "name": "approved",
          "type": "address"
        },
        {
          "indexed": true,
          "internalType": "uint256",
          "name": "tokenId",
          "type": "uint256"
        }
      ],
      "name": "Approval",
      "type": "event"
    },
    {
      "anonymous": false,
      "inputs": [
        {
          "indexed": true,
          "internalType": "address",
          "name": "owner",
          "type": "address"
        },
        {
          "indexed": true,
          "internalType": "address",
          "name": "operator",
          "type": "address"
        },
        {
          "indexed": false,
          "internalType": "bool",
          "name": "approved",
          "type": "bool"
        }
      ],
      "name": "ApprovalForAll",
      "type": "event"
    },
    {
      "anonymous": false,
      "inputs": [
        {
          "indexed": false,
          "internalType": "uint256",
          "name": "_fromTokenId",
          "type": "uint256"
        },
        {
          "indexed": false,
          "internalType": "uint256",
          "name": "_toTokenId",
          "type": "uint256"
        }
      ],
      "name": "BatchMetadataUpdate",
      "type": "event"
    },
    {
      "anonymous": false,
      "inputs": [
        {
          "indexed": false,
          "internalType": "uint256",
          "name": "_tokenId",
          "type": "uint256"
        }
      ],
      "name": "MetadataUpdate",
      "type": "event"
    },
    {
      "anonymous": false,
      "inputs": [
        {
          "indexed": true,
          "internalType": "address",
          "name": "previousOwner",
          "type": "address"
        },
        {
          "indexed": true,
          "internalType": "address",
          "name": "newOwner",
          "type": "address"
        }
      ],
      "name": "OwnershipTransferred",
      "type": "event"
    },
    {
      "anonymous": false,
      "inputs": [
        {
          "indexed": true,
          "internalType": "address",
          "name": "from",
          "type": "address"
        },
        {
          "indexed": true,
          "internalType": "address",
          "name": "to",
          "type": "address"
        },
        {
          "indexed": true,
          "internalType": "uint256",
          "name": "tokenId",
          "type": "uint256"
        }
      ],
      "name": "Transfer",
      "type": "event"
    },
    {
      "inputs": [
        {
          "internalType": "address",
          "name": "to",
          "type": "address"
        },
        {
          "internalType": "uint256",
          "name": "tokenId",
          "type": "uint256"
        }
      ],
      "name": "approve",
      "outputs": [],
      "stateMutability": "nonpayable",
      "type": "function"
    },
    {
      "inputs": [
        {
          "internalType": "address",
          "name": "owner",
          "type": "address"
        }
      ],
      "name": "balanceOf",
      "outputs": [
        {
          "internalType": "uint256",
          "name": "",
          "type": "uint256"
        }
      ],
      "stateMutability": "view",
      "type": "function"
    },
    {
      "inputs": [
        {
          "internalType": "uint256",
          "name": "tokenId",
          "type": "uint256"
        }
      ],
      "name": "getApproved",
      "outputs": [
        {
          "internalType": "address",
          "name": "",
          "type": "address"
        }
      ],
      "stateMutability": "view",
      "type": "function"
    },
    {
      "inputs": [
        {
          "internalType": "address",
          "name": "owner",
          "type": "address"
        },
        {
          "internalType": "address",
          "name": "operator",
          "type": "address"
        }
      ],
      "name": "isApprovedForAll",
      "outputs": [
        {
          "internalType": "bool",
          "name": "",
          "type": "bool"
        }
      ],
      "stateMutability": "view",
      "type": "function"
    },
    {
      "inputs": [],
      "name": "name",
      "outputs": [
        {
          "internalType": "string",
          "name": "",
          "type": "string"
        }
      ],
      "stateMutability": "view",
      "type": "function"
    },
    {
      "inputs": [],
      "name": "owner",
      "outputs": [
        {
          "internalType": "address",
          "name": "",
          "type": "address"
        }
      ],
      "stateMutability": "view",
      "type": "function"
    },
    {
      "inputs": [
        {
          "internalType": "uint256",
          "name": "tokenId",
          "type": "uint256"
        }
      ],
      "name": "ownerOf",
      "outputs": [
        {
          "internalType": "address",
          "name": "",
          "type": "address"
        }
      ],
      "stateMutability": "view",
      "type": "function"
    },
    {
      "inputs": [],
      "name": "renounceOwnership",
      "outputs": [],
      "stateMutability": "nonpayable",
      "type": "function"
    },
    {
      "inputs": [
        {
          "internalType": "address",
          "name": "to",
          "type": "address"
        },
        {
          "internalType": "string",
          "name": "uri",
          "type": "string"
        }
      ],
      "name": "safeMint",
      "outputs": [
        {
          "internalType": "uint256",
          "name": "",
          "type": "uint256"
        }
      ],
      "stateMutability": "nonpayable",
      "type": "function"
    },
    {
      "inputs": [
        {
          "internalType": "address",
          "name": "from",
          "type": "address"
        },
        {
          "internalType": "address",
          "name": "to",
          "type": "address"
        },
        {
          "internalType": "uint256",
          "name": "tokenId",
          "type": "uint256"
        }
      ],
      "name": "safeTransferFrom",
      "outputs": [],
      "stateMutability": "nonpayable",
      "type": "function"
    },
    {
      "inputs": [
        {
          "internalType": "address",
          "name": "from",
          "type": "address"
        },
        {
          "internalType": "address",
          "name": "to",
          "type": "address"
        },
        {
          "internalType": "uint256",
          "name": "tokenId",
          "type": "uint256"
        },
        {
          "internalType": "bytes",
          "name": "data",
          "type": "bytes"
        }
      ],
      "name": "safeTransferFrom",
      "outputs": [],
      "stateMutability": "nonpayable",
      "type": "function"
    },
    {
      "inputs": [
        {
          "internalType": "address",
          "name": "operator",
          "type": "address"
        },
        {
          "internalType": "bool",
          "name": "approved",
          "type": "bool"
        }
      ],
      "name": "setApprovalForAll",
      "outputs": [],
      "stateMutability": "nonpayable",
      "type": "function"
    },
    {
      "inputs": [
        {
          "internalType": "bytes4",
          "name": "interfaceId",
          "type": "bytes4"
        }
      ],
      "name": "supportsInterface",
      "outputs": [
        {
          "internalType": "bool",
          "name": "",
          "type": "bool"
        }
      ],
      "stateMutability": "view",
      "type": "function"
    },
    {
      "inputs": [],
      "name": "symbol",
      "outputs": [
        {
          "internalType": "string",
          "name": "",
          "type": "string"
        }
      ],
      "stateMutability": "view",
      "type": "function"
    },
    {
      "inputs": [
        {
          "internalType": "uint256",
          "name": "tokenId",
          "type": "uint256"
        }
      ],
      "name": "tokenURI",
      "outputs": [
        {
          "internalType": "string",
          "name": "",
          "type": "string"
        }
      ],
      "stateMutability": "view",
      "type": "function"
    },
    {
      "inputs": [
        {
          "internalType": "address",
          "name": "from",
          "type": "address"
        },
        {
          "internalType": "address",
          "name": "to",
          "type": "address"
        },
        {
          "internalType": "uint256",
          "name": "tokenId",
          "type": "uint256"
        }
      ],
      "name": "transferFrom",
      "outputs": [],
      "stateMutability": "nonpayable",
      "type": "function"
    },
    {
      "inputs": [
        {
          "internalType": "address",
          "name": "newOwner",
          "type": "address"
        }
      ],
      "name": "transferOwnership",
      "outputs": [],
      "stateMutability": "nonpayable",
      "type": "function"
    },
    {
      "inputs": [
        {
          "internalType": "uint256",
          "name": "tokenId",
          "type": "uint256"
        },
        {
          "internalType": "string",
          "name": "newTokenUri",
          "type": "string"
        }
      ],
      "name": "updateTokenURI",
      "outputs": [],
      "stateMutability": "nonpayable",
      "type": "function"
    }
  ],
  "bytecode": "0x6080604052600160085534801561001557600080fd5b50336040518060400160405280600d81526020017f414920466c6f77204167656e74000000000000000000000000000000000000008152506040518060400160405280600481526020017f414946410000000000000000000000000000000000000000000000000000000081525081600090816100929190610442565b5080600190816100a29190610442565b505050600073ffffffffffffffffffffffffffffffffffffffff168173ffffffffffffffffffffffffffffffffffffffff16036101175760006040517f1e4fbdf700000000000000000000000000000000000000000000000000000000815260040161010e9190610555565b60405180910390fd5b6101268161012c60201b60201c565b50610570565b6000600760009054906101000a900473ffffffffffffffffffffffffffffffffffffffff16905081600760006101000a81548173ffffffffffffffffffffffffffffffffffffffff021916908373ffffffffffffffffffffffffffffffffffffffff1602179055508173ffffffffffffffffffffffffffffffffffffffff168173ffffffffffffffffffffffffffffffffffffffff167f8be0079c531659141344cd1fd0a4f28419497f9722a3daafe3b4186f6b6457e060405160405180910390a35050565b600081519050919050565b7f4e487b7100000000000000000000000000000000000000000000000000000000600052604160045260246000fd5b7f4e487b7100000000000000000000000000000000000000000000000000000000600052602260045260246000fd5b6000600282049050600182168061027357607f821691505b6020821081036102865761028561022c565b5b50919050565b60008190508160005260206000209050919050565b60006020601f8301049050919050565b600082821b905092915050565b6000600883026102ee7fffffffffffffffffffffffffffffffffffffffffffffffffffffffffffffffff826102b1565b6102f886836102b1565b95508019841693508086168417925050509392505050565b6000819050919050565b6000819050919050565b600061033f61033a61033584610310565b61031a565b610310565b9050919050565b6000819050919050565b61035983610324565b61036d61036582610346565b8484546102be565b825550505050565b600090565b610382610375565b61038d818484610350565b505050565b5b818110156103b1576103a660008261037a565b600181019050610393565b5050565b601f8211156103f6576103c78161028c565b6103d0846102a1565b810160208510156103df578190505b6103f36103eb856102a1565b830182610392565b50505b505050565b600082821c905092915050565b6000610419600019846008026103fb565b1980831691505092915050565b60006104328383610408565b9150826002028217905092915050565b61044b826101f2565b67ffffffffffffffff811115610464576104636101fd565b5b61046e825461025b565b6104798282856103b5565b600060209050601f8311600181146104ac576000841561049a578287015190505b6104a48582610426565b86555061050c565b601f1984166104ba8661028c565b60005b828110156104e2578489015182556001820191506020850194506020810190506104bd565b868310156104ff57848901516104fb601f891682610408565b8355505b6001600288020188555050505b505050505050565b600073ffffffffffffffffffffffffffffffffffffffff82169050919050565b600061053f82610514565b9050919050565b61054f81610534565b82525050565b600060208201905061056a6000830184610546565b92915050565b6127e58061057f6000396000f3fe608060405234801561001057600080fd5b50600436106101165760003560e01c8063715018a6116100a2578063b88d4fde11610071578063b88d4fde146102cb578063c87b56dd146102e7578063d204c45e14610317578063e985e9c514610347578063f2fde38b1461037757610116565b8063715018a6146102695780638da5cb5b1461027357806395d89b4114610291578063a22cb465146102af57610116565b806318e97fd1116100e957806318e97fd1146101b557806323b872dd146101d157806342842e0e146101ed5780636352211e1461020957806370a082311461023957610116565b806301ffc9a71461011b57806306fdde031461014b578063081812fc14610169578063095ea7b314610199575b600080fd5b61013560048036038101906101309190611b7d565b610393565b6040516101429190611bc5565b60405180910390f35b6101536103a5565b6040516101609190611c70565b60405180910390f35b610183600480360381019061017e9190611cc8565b610437565b6040516101909190611d36565b60405180910390f35b6101b360048036038101906101ae9190611d7d565b610453565b005b6101cf60048036038101906101ca9190611e22565b610469565b005b6101eb60048036038101906101e69190611e82565b6104c4565b005b61020760048036038101906102029190611e82565b6105c6565b005b610223600480360381019061021e9190611cc8565b6105e6565b6040516102309190611d36565b60405180910390f35b610253600480360381019061024e9190611ed5565b6105f8565b6040516102609190611f11565b60405180910390f35b6102716106b2565b005b61027b6106c6565b6040516102889190611d36565b60405180910390f35b6102996106f0565b6040516102a69190611c70565b60405180910390f35b6102c960048036038101906102c49190611f58565b610782565b005b6102e560048036038101906102e091906120c8565b610798565b005b61030160048036038101906102fc9190611cc8565b6107bd565b60405161030e9190611c70565b60405180910390f35b610331600480360381019061032c91906121ec565b6107cf565b60405161033e9190611f11565b60405180910390f35b610361600480360381019061035c9190612248565b610812565b60405161036e9190611bc5565b60405180910390f35b610391600480360381019061038c9190611ed5565b6108a6565b005b600061039e8261092c565b9050919050565b6060600080546103b4906122b7565b80601f01602080910402602001604051908101604052809291908181526020018280546103e0906122b7565b801561042d5780601f106104025761010080835404028352916020019161042d565b820191906000526020600020905b81548152906001019060200180831161041057829003601f168201915b5050505050905090565b60006104428261098d565b5061044c82610a15565b9050919050565b6104658282610460610a52565b610a5a565b5050565b610471610a6c565b6104bf8383838080601f016020809104026020016040519081016040528093929190818152602001838380828437600081840152601f19601f82011690508083019250505050505050610af3565b505050565b600073ffffffffffffffffffffffffffffffffffffffff168273ffffffffffffffffffffffffffffffffffffffff16036105365760006040517f64a0ae9200000000000000000000000000000000000000000000000000000000815260040161052d9190611d36565b60405180910390fd5b600061054a8383610545610a52565b610b4f565b90508373ffffffffffffffffffffffffffffffffffffffff168173ffffffffffffffffffffffffffffffffffffffff16146105c0578382826040517f64283d7b0000000000000000000000000000000000000000000000000000000081526004016105b7939291906122e8565b60405180910390fd5b50505050565b6105e183838360405180602001604052806000815250610798565b505050565b60006105f18261098d565b9050919050565b60008073ffffffffffffffffffffffffffffffffffffffff168273ffffffffffffffffffffffffffffffffffffffff160361066b5760006040517f89c62b640000000000000000000000000000000000000000000000000000000081526004016106629190611d36565b60405180910390fd5b600360008373ffffffffffffffffffffffffffffffffffffffff1673ffffffffffffffffffffffffffffffffffffffff168152602001908152602001600020549050919050565b6106ba610a6c565b6106c46000610d69565b565b6000600760009054906101000a900473ffffffffffffffffffffffffffffffffffffffff16905090565b6060600180546106ff906122b7565b80601f016020809104026020016040519081016040528092919081815260200182805461072b906122b7565b80156107785780601f1061074d57610100808354040283529160200191610778565b820191906000526020600020905b81548152906001019060200180831161075b57829003601f168201915b5050505050905090565b61079461078d610a52565b8383610e2f565b5050565b6107a38484846104c4565b6107b76107ae610a52565b85858585610f9e565b50505050565b60606107c88261114f565b9050919050565b60006107d9610a6c565b6000600860008154809291906107ee9061234e565b9190505590506107fe8482611262565b6108088184610af3565b8091505092915050565b6000600560008473ffffffffffffffffffffffffffffffffffffffff1673ffffffffffffffffffffffffffffffffffffffff16815260200190815260200160002060008373ffffffffffffffffffffffffffffffffffffffff1673ffffffffffffffffffffffffffffffffffffffff16815260200190815260200160002060009054906101000a900460ff16905092915050565b6108ae610a6c565b600073ffffffffffffffffffffffffffffffffffffffff168173ffffffffffffffffffffffffffffffffffffffff16036109205760006040517f1e4fbdf70000000000000000000000000000000000000000000000000000000081526004016109179190611d36565b60405180910390fd5b61092981610d69565b50565b6000634906490660e01b7bffffffffffffffffffffffffffffffffffffffffffffffffffffffff1916827bffffffffffffffffffffffffffffffffffffffffffffffffffffffff19161480610986575061098582611280565b5b9050919050565b60008061099983611362565b9050600073ffffffffffffffffffffffffffffffffffffffff168173ffffffffffffffffffffffffffffffffffffffff1603610a0c57826040517f7e273289000000000000000000000000000000000000000000000000000000008152600401610a039190611f11565b60405180910390fd5b80915050919050565b60006004600083815260200190815260200160002060009054906101000a900473ffffffffffffffffffffffffffffffffffffffff169050919050565b600033905090565b610a67838383600161139f565b505050565b610a74610a52565b73ffffffffffffffffffffffffffffffffffffffff16610a926106c6565b73ffffffffffffffffffffffffffffffffffffffff1614610af157610ab5610a52565b6040517f118cdaa7000000000000000000000000000000000000000000000000000000008152600401610ae89190611d36565b60405180910390fd5b565b80600660008481526020019081526020016000209081610b139190612542565b507ff8e1a15aba9398e019f0b49df1a4fde98ee17ae345cb5f6b5e2c27f5033e8ce782604051610b439190611f11565b60405180910390a15050565b600080610b5b84611362565b9050600073ffffffffffffffffffffffffffffffffffffffff168373ffffffffffffffffffffffffffffffffffffffff1614610b9d57610b9c818486611564565b5b600073ffffffffffffffffffffffffffffffffffffffff168173ffffffffffffffffffffffffffffffffffffffff1614610c2e57610bdf60008560008061139f565b6001600360008373ffffffffffffffffffffffffffffffffffffffff1673ffffffffffffffffffffffffffffffffffffffff168152602001908152602001600020600082825403925050819055505b600073ffffffffffffffffffffffffffffffffffffffff168573ffffffffffffffffffffffffffffffffffffffff1614610cb1576001600360008773ffffffffffffffffffffffffffffffffffffffff1673ffffffffffffffffffffffffffffffffffffffff168152602001908152602001600020600082825401925050819055505b846002600086815260200190815260200160002060006101000a81548173ffffffffffffffffffffffffffffffffffffffff021916908373ffffffffffffffffffffffffffffffffffffffff160217905550838573ffffffffffffffffffffffffffffffffffffffff168273ffffffffffffffffffffffffffffffffffffffff167fddf252ad1be2c89b69c2b068fc378daa952ba7f163c4a11628f55a4df523b3ef60405160405180910390a4809150509392505050565b6000600760009054906101000a900473ffffffffffffffffffffffffffffffffffffffff16905081600760006101000a81548173ffffffffffffffffffffffffffffffffffffffff021916908373ffffffffffffffffffffffffffffffffffffffff1602179055508173ffffffffffffffffffffffffffffffffffffffff168173ffffffffffffffffffffffffffffffffffffffff167f8be0079c531659141344cd1fd0a4f28419497f9722a3daafe3b4186f6b6457e060405160405180910390a35050565b600073ffffffffffffffffffffffffffffffffffffffff168273ffffffffffffffffffffffffffffffffffffffff1603610ea057816040517f5b08ba18000000000000000000000000000000000000000000000000000000008152600401610e979190611d36565b60405180910390fd5b80600560008573ffffffffffffffffffffffffffffffffffffffff1673ffffffffffffffffffffffffffffffffffffffff16815260200190815260200160002060008473ffffffffffffffffffffffffffffffffffffffff1673ffffffffffffffffffffffffffffffffffffffff16815260200190815260200160002060006101000a81548160ff0219169083151502179055508173ffffffffffffffffffffffffffffffffffffffff168373ffffffffffffffffffffffffffffffffffffffff167f17307eab39ab6107e8899845ad3d59bd9653f200f220920489ca2b5937696c3183604051610f919190611bc5565b60405180910390a3505050565b60008373ffffffffffffffffffffffffffffffffffffffff163b1115611148578273ffffffffffffffffffffffffffffffffffffffff1663150b7a02868685856040518563ffffffff1660e01b8152600401610ffd9493929190612669565b6020604051808303816000875af192505050801561103957506040513d601f19601f8201168201806040525081019061103691906126ca565b60015b6110bd573d8060008114611069576040519150601f19603f3d011682016040523d82523d6000602084013e61106e565b606091505b5060008151036110b557836040517f64a0ae920000000000000000000000000000000000000000000000000000000081526004016110ac9190611d36565b60405180910390fd5b805181602001fd5b63150b7a0260e01b7bffffffffffffffffffffffffffffffffffffffffffffffffffffffff1916817bffffffffffffffffffffffffffffffffffffffffffffffffffffffff19161461114657836040517f64a0ae9200000000000000000000000000000000000000000000000000000000815260040161113d9190611d36565b60405180910390fd5b505b5050505050565b606061115a8261098d565b50600060066000848152602001908152602001600020805461117b906122b7565b80601f01602080910402602001604051908101604052809291908181526020018280546111a7906122b7565b80156111f45780601f106111c9576101008083540402835291602001916111f4565b820191906000526020600020905b8154815290600101906020018083116111d757829003601f168201915b505050505090506000611205611628565b9050600081510361121a57819250505061125d565b60008251111561124f578082604051602001611237929190612733565b6040516020818303038152906040529250505061125d565b6112588461163f565b925050505b919050565b61127c8282604051806020016040528060008152506116a8565b5050565b60007f80ac58cd000000000000000000000000000000000000000000000000000000007bffffffffffffffffffffffffffffffffffffffffffffffffffffffff1916827bffffffffffffffffffffffffffffffffffffffffffffffffffffffff1916148061134b57507f5b5e139f000000000000000000000000000000000000000000000000000000007bffffffffffffffffffffffffffffffffffffffffffffffffffffffff1916827bffffffffffffffffffffffffffffffffffffffffffffffffffffffff1916145b8061135b575061135a826116cc565b5b9050919050565b60006002600083815260200190815260200160002060009054906101000a900473ffffffffffffffffffffffffffffffffffffffff169050919050565b80806113d85750600073ffffffffffffffffffffffffffffffffffffffff168273ffffffffffffffffffffffffffffffffffffffff1614155b1561150c5760006113e88461098d565b9050600073ffffffffffffffffffffffffffffffffffffffff168373ffffffffffffffffffffffffffffffffffffffff161415801561145357508273ffffffffffffffffffffffffffffffffffffffff168173ffffffffffffffffffffffffffffffffffffffff1614155b801561146657506114648184610812565b155b156114a857826040517fa9fbf51f00000000000000000000000000000000000000000000000000000000815260040161149f9190611d36565b60405180910390fd5b811561150a57838573ffffffffffffffffffffffffffffffffffffffff168273ffffffffffffffffffffffffffffffffffffffff167f8c5be1e5ebec7d5bd14f71427d1e84f3dd0314c0f7b2291e5b200ac8c7c3b92560405160405180910390a45b505b836004600085815260200190815260200160002060006101000a81548173ffffffffffffffffffffffffffffffffffffffff021916908373ffffffffffffffffffffffffffffffffffffffff16021790555050505050565b61156f838383611736565b61162357600073ffffffffffffffffffffffffffffffffffffffff168373ffffffffffffffffffffffffffffffffffffffff16036115e457806040517f7e2732890000000000000000000000000000000000000000000000000000000081526004016115db9190611f11565b60405180910390fd5b81816040517f177e802f00000000000000000000000000000000000000000000000000000000815260040161161a929190612757565b60405180910390fd5b505050565b606060405180602001604052806000815250905090565b606061164a8261098d565b506000611655611628565b9050600081511161167557604051806020016040528060008152506116a0565b8061167f846117f7565b604051602001611690929190612733565b6040516020818303038152906040525b915050919050565b6116b283836118c5565b6116c76116bd610a52565b6000858585610f9e565b505050565b60007f01ffc9a7000000000000000000000000000000000000000000000000000000007bffffffffffffffffffffffffffffffffffffffffffffffffffffffff1916827bffffffffffffffffffffffffffffffffffffffffffffffffffffffff1916149050919050565b60008073ffffffffffffffffffffffffffffffffffffffff168373ffffffffffffffffffffffffffffffffffffffff16141580156117ee57508273ffffffffffffffffffffffffffffffffffffffff168473ffffffffffffffffffffffffffffffffffffffff1614806117af57506117ae8484610812565b5b806117ed57508273ffffffffffffffffffffffffffffffffffffffff166117d583610a15565b73ffffffffffffffffffffffffffffffffffffffff16145b5b90509392505050565b606060006001611806846119be565b01905060008167ffffffffffffffff81111561182557611824611f9d565b5b6040519080825280601f01601f1916602001820160405280156118575781602001600182028036833780820191505090505b509050600082602001820190505b6001156118ba578080600190039150507f3031323334353637383961626364656600000000000000000000000000000000600a86061a8153600a85816118ae576118ad612780565b5b04945060008503611865575b819350505050919050565b600073ffffffffffffffffffffffffffffffffffffffff168273ffffffffffffffffffffffffffffffffffffffff16036119375760006040517f64a0ae9200000000000000000000000000000000000000000000000000000000815260040161192e9190611d36565b60405180910390fd5b600061194583836000610b4f565b9050600073ffffffffffffffffffffffffffffffffffffffff168173ffffffffffffffffffffffffffffffffffffffff16146119b95760006040517f73c6ac6e0000000000000000000000000000000000000000000000000000000081526004016119b09190611d36565b60405180910390fd5b505050565b600080600090507a184f03e93ff9f4daa797ed6e38ed64bf6a1f0100000000000000008310611a1c577a184f03e93ff9f4daa797ed6e38ed64bf6a1f0100000000000000008381611a1257611a11612780565b5b0492506040810190505b6d04ee2d6d415b85acef81000000008310611a59576d04ee2d6d415b85acef81000000008381611a4f57611a4e612780565b5b0492506020810190505b662386f26fc100008310611a8857662386f26fc100008381611a7e57611a7d612780565b5b0492506010810190505b6305f5e1008310611ab1576305f5e1008381611aa757611aa6612780565b5b0492506008810190505b6127108310611ad6576127108381611acc57611acb612780565b5b0492506004810190505b60648310611af95760648381611aef57611aee612780565b5b0492506002810190505b600a8310611b08576001810190505b80915050919050565b6000604051905090565b600080fd5b600080fd5b60007fffffffff0000000000000000000000000000000000000000000000000000000082169050919050565b611b5a81611b25565b8114611b6557600080fd5b50565b600081359050611b7781611b51565b92915050565b600060208284031215611b9357611b92611b1b565b5b6000611ba184828501611b68565b91505092915050565b60008115159050919050565b611bbf81611baa565b82525050565b6000602082019050611bda6000830184611bb6565b92915050565b600081519050919050565b600082825260208201905092915050565b60005b83811015611c1a578082015181840152602081019050611bff565b60008484015250505050565b6000601f19601f8301169050919050565b6000611c4282611be0565b611c4c8185611beb565b9350611c5c818560208601611bfc565b611c6581611c26565b840191505092915050565b60006020820190508181036000830152611c8a8184611c37565b905092915050565b6000819050919050565b611ca581611c92565b8114611cb057600080fd5b50565b600081359050611cc281611c9c565b92915050565b600060208284031215611cde57611cdd611b1b565b5b6000611cec84828501611cb3565b91505092915050565b600073ffffffffffffffffffffffffffffffffffffffff82169050919050565b6000611d2082611cf5565b9050919050565b611d3081611d15565b82525050565b6000602082019050611d4b6000830184611d27565b92915050565b611d5a81611d15565b8114611d6557600080fd5b50565b600081359050611d7781611d51565b92915050565b60008060408385031215611d9457611d93611b1b565b5b6000611da285828601611d68565b9250506020611db385828601611cb3565b9150509250929050565b600080fd5b600080fd5b600080fd5b60008083601f840112611de257611de1611dbd565b5b8235905067ffffffffffffffff811115611dff57611dfe611dc2565b5b602083019150836001820283011115611e1b57611e1a611dc7565b5b9250929050565b600080600060408486031215611e3b57611e3a611b1b565b5b6000611e4986828701611cb3565b935050602084013567ffffffffffffffff811115611e6a57611e69611b20565b5b611e7686828701611dcc565b92509250509250925092565b600080600060608486031215611e9b57611e9a611b1b565b5b6000611ea986828701611d68565b9350506020611eba86828701611d68565b9250506040611ecb86828701611cb3565b9150509250925092565b600060208284031215611eeb57611eea611b1b565b5b6000611ef984828501611d68565b91505092915050565b611f0b81611c92565b82525050565b6000602082019050611f266000830184611f02565b92915050565b611f3581611baa565b8114611f4057600080fd5b50565b600081359050611f5281611f2c565b92915050565b60008060408385031215611f6f57611f6e611b1b565b5b6000611f7d85828601611d68565b9250506020611f8e85828601611f43565b9150509250929050565b600080fd5b7f4e487b7100000000000000000000000000000000000000000000000000000000600052604160045260246000fd5b611fd582611c26565b810181811067ffffffffffffffff82111715611ff457611ff3611f9d565b5b80604052505050565b6000612007611b11565b90506120138282611fcc565b919050565b600067ffffffffffffffff82111561203357612032611f9d565b5b61203c82611c26565b9050602081019050919050565b82818337600083830152505050565b600061206b61206684612018565b611ffd565b90508281526020810184848401111561208757612086611f98565b5b612092848285612049565b509392505050565b600082601f8301126120af576120ae611dbd565b5b81356120bf848260208601612058565b91505092915050565b600080600080608085870312156120e2576120e1611b1b565b5b60006120f087828801611d68565b945050602061210187828801611d68565b935050604061211287828801611cb3565b925050606085013567ffffffffffffffff81111561213357612132611b20565b5b61213f8782880161209a565b91505092959194509250565b600067ffffffffffffffff82111561216657612165611f9d565b5b61216f82611c26565b9050602081019050919050565b600061218f61218a8461214b565b611ffd565b9050828152602081018484840111156121ab576121aa611f98565b5b6121b6848285612049565b509392505050565b600082601f8301126121d3576121d2611dbd565b5b81356121e384826020860161217c565b91505092915050565b6000806040838503121561220357612202611b1b565b5b600061221185828601611d68565b925050602083013567ffffffffffffffff81111561223257612231611b20565b5b61223e858286016121be565b9150509250929050565b6000806040838503121561225f5761225e611b1b565b5b600061226d85828601611d68565b925050602061227e85828601611d68565b9150509250929050565b7f4e487b7100000000000000000000000000000000000000000000000000000000600052602260045260246000fd5b600060028204905060018216806122cf57607f821691505b6020821081036122e2576122e1612288565b5b50919050565b60006060820190506122fd6000830186611d27565b61230a6020830185611f02565b6123176040830184611d27565b949350505050565b7f4e487b7100000000000000000000000000000000000000000000000000000000600052601160045260246000fd5b600061235982611c92565b91507fffffffffffffffffffffffffffffffffffffffffffffffffffffffffffffffff820361238b5761238a61231f565b5b600182019050919050565b60008190508160005260206000209050919050565b60006020601f8301049050919050565b600082821b905092915050565b6000600883026123f87fffffffffffffffffffffffffffffffffffffffffffffffffffffffffffffffff826123bb565b61240286836123bb565b95508019841693508086168417925050509392505050565b6000819050919050565b600061243f61243a61243584611c92565b61241a565b611c92565b9050919050565b6000819050919050565b61245983612424565b61246d61246582612446565b8484546123c8565b825550505050565b600090565b612482612475565b61248d818484612450565b505050565b5b818110156124b1576124a660008261247a565b600181019050612493565b5050565b601f8211156124f6576124c781612396565b6124d0846123ab565b810160208510156124df578190505b6124f36124eb856123ab565b830182612492565b50505b505050565b600082821c905092915050565b6000612519600019846008026124fb565b1980831691505092915050565b60006125328383612508565b9150826002028217905092915050565b61254b82611be0565b67ffffffffffffffff81111561256457612563611f9d565b5b61256e82546122b7565b6125798282856124b5565b600060209050601f8311600181146125ac576000841561259a578287015190505b6125a48582612526565b86555061260c565b601f1984166125ba86612396565b60005b828110156125e2578489015182556001820191506020850194506020810190506125bd565b868310156125ff57848901516125fb601f891682612508565b8355505b6001600288020188555050505b505050505050565b600081519050919050565b600082825260208201905092915050565b600061263b82612614565b612645818561261f565b9350612655818560208601611bfc565b61265e81611c26565b840191505092915050565b600060808201905061267e6000830187611d27565b61268b6020830186611d27565b6126986040830185611f02565b81810360608301526126aa8184612630565b905095945050505050565b6000815190506126c481611b51565b92915050565b6000602082840312156126e0576126df611b1b565b5b60006126ee848285016126b5565b91505092915050565b600081905092915050565b600061270d82611be0565b61271781856126f7565b9350612727818560208601611bfc565b80840191505092915050565b600061273f8285612702565b915061274b8284612702565b91508190509392505050565b600060408201905061276c6000830185611d27565b6127796020830184611f02565b9392505050565b7f4e487b7100000000000000000000000000000000000000000000000000000000600052601260045260246000fdfea26469706673582212200db5cfaa0d7a5a1fbdd1fda10c44c020d99952357058df1e0b671eb7dfb67eec64736f6c634300081c0033",
  "linkReferences": {},
  "deployedLinkReferences": {}
}