{
  "_format": "hh-sol-artifact-1",
  "contractName": "AIFlowOracle",
  "sourceName": "contracts/AIFlowOracle.sol",
  "abi": [
    {
      "inputs": [
        {
          "internalType": "address",
          "name": "_agentNftAddress",
          "type": "address"
        },
        {
          "internalType": "address",
          "name": "_initialOwner",
          "type": "address"
        }
      ],
      "stateMutability": "nonpayable",
      "type": "constructor"
    },
    {
      "inputs": [
        {
          "internalType": "address",
          "name": "owner",
          "type": "address"
        }
      ],
      "name": "OwnableInvalidOwner",
      "type": "error"
    },
    {
      "inputs": [
        {
          "internalType": "address",
          "name": "account",
          "type": "address"
        }
      ],
      "name": "OwnableUnauthorizedAccount",
      "type": "error"
    },
    {
      "anonymous": false,
      "inputs": [
        {
          "indexed": true,
          "internalType": "uint256",
          "name": "agentId",
          "type": "uint256"
        },
        {
          "indexed": false,
          "internalType": "address",
          "name": "tokenAddress",
          "type": "address"
        }
      ],
      "name": "AgentCreated",
      "type": "event"
    },
    {
      "anonymous": false,
      "inputs": [
        {
          "indexed": true,
          "internalType": "address",
          "name": "previousOwner",
          "type": "address"
        },
        {
          "indexed": true,
          "internalType": "address",
          "name": "newOwner",
          "type": "address"
        }
      ],
      "name": "OwnershipTransferred",
      "type": "event"
    },
    {
      "inputs": [
        {
          "internalType": "address",
          "name": "to",
          "type": "address"
        },
        {
          "internalType": "string",
          "name": "tokenUri",
          "type": "string"
        },
        {
          "internalType": "string",
          "name": "tokenName",
          "type": "string"
        },
        {
          "internalType": "string",
          "name": "tokenSymbol",
          "type": "string"
        }
      ],
      "name": "createAgent",
      "outputs": [
        {
          "internalType": "uint256",
          "name": "agentId",
          "type": "uint256"
        },
        {
          "internalType": "address",
          "name": "tokenAddress",
          "type": "address"
        }
      ],
      "stateMutability": "nonpayable",
      "type": "function"
    },
    {
      "inputs": [
        {
          "internalType": "uint256",
          "name": "agentId",
          "type": "uint256"
        }
      ],
      "name": "getAgentBy",
      "outputs": [
        {
          "components": [
            {
              "internalType": "uint256",
              "name": "agentId",
              "type": "uint256"
            },
            {
              "internalType": "address",
              "name": "tokenAddress",
              "type": "address"
            }
          ],
          "internalType": "struct AIFlowOracle.Agent",
          "name": "agent",
          "type": "tuple"
        }
      ],
      "stateMutability": "view",
      "type": "function"
    },
    {
      "inputs": [
        {
          "internalType": "address",
          "name": "tokenAddress",
          "type": "address"
        }
      ],
      "name": "getAgentIdBy",
      "outputs": [
        {
          "internalType": "uint256",
          "name": "agentId",
          "type": "uint256"
        }
      ],
      "stateMutability": "view",
      "type": "function"
    },
    {
      "inputs": [
        {
          "internalType": "uint256",
          "name": "agentId",
          "type": "uint256"
        },
        {
          "internalType": "address",
          "name": "to",
          "type": "address"
        },
        {
          "internalType": "uint256",
          "name": "amount",
          "type": "uint256"
        }
      ],
      "name": "mintToken",
      "outputs": [],
      "stateMutability": "nonpayable",
      "type": "function"
    },
    {
      "inputs": [],
      "name": "owner",
      "outputs": [
        {
          "internalType": "address",
          "name": "",
          "type": "address"
        }
      ],
      "stateMutability": "view",
      "type": "function"
    },
    {
      "inputs": [],
      "name": "renounceOwnership",
      "outputs": [],
      "stateMutability": "nonpayable",
      "type": "function"
    },
    {
      "inputs": [
        {
          "internalType": "address",
          "name": "newOwner",
          "type": "address"
        }
      ],
      "name": "transferOwnership",
      "outputs": [],
      "stateMutability": "nonpayable",
      "type": "function"
    },
    {
      "inputs": [
        {
          "internalType": "uint256",
          "name": "agentId",
          "type": "uint256"
        },
        {
          "internalType": "string",
          "name": "newAgentURI",
          "type": "string"
        }
      ],
      "name": "updateAgentURI",
      "outputs": [],
      "stateMutability": "nonpayable",
      "type": "function"
    }
  ],
  "bytecode": "0x60a0604052600160025534801561001557600080fd5b50604051612ecf380380612ecf8339818101604052810190610037919061021c565b80600073ffffffffffffffffffffffffffffffffffffffff168173ffffffffffffffffffffffffffffffffffffffff16036100aa5760006040517f1e4fbdf70000000000000000000000000000000000000000000000000000000081526004016100a1919061026b565b60405180910390fd5b6100b9816100f560201b60201c565b508173ffffffffffffffffffffffffffffffffffffffff1660808173ffffffffffffffffffffffffffffffffffffffff16815250505050610286565b60008060009054906101000a900473ffffffffffffffffffffffffffffffffffffffff169050816000806101000a81548173ffffffffffffffffffffffffffffffffffffffff021916908373ffffffffffffffffffffffffffffffffffffffff1602179055508173ffffffffffffffffffffffffffffffffffffffff168173ffffffffffffffffffffffffffffffffffffffff167f8be0079c531659141344cd1fd0a4f28419497f9722a3daafe3b4186f6b6457e060405160405180910390a35050565b600080fd5b600073ffffffffffffffffffffffffffffffffffffffff82169050919050565b60006101e9826101be565b9050919050565b6101f9816101de565b811461020457600080fd5b50565b600081519050610216816101f0565b92915050565b60008060408385031215610233576102326101b9565b5b600061024185828601610207565b925050602061025285828601610207565b9150509250929050565b610265816101de565b82525050565b6000602082019050610280600083018461025c565b92915050565b608051612c196102b6600039600081816101f0015281816103ac015281816104b601526105630152612c196000f3fe608060405234801561001057600080fd5b50600436106100885760003560e01c80637811a5bf1161005b5780637811a5bf146101145780638da5cb5b14610130578063a9fc03941461014e578063f2fde38b1461017e57610088565b80630d6f41281461008d57806313478a34146100bd5780636b595822146100ee578063715018a61461010a575b600080fd5b6100a760048036038101906100a29190610ab0565b61019a565b6040516100b49190610af6565b60405180910390f35b6100d760048036038101906100d29190610cb7565b6101e3565b6040516100e5929190610d89565b60405180910390f35b61010860048036038101906101039190610dde565b6103a7565b005b61011261054a565b005b61012e60048036038101906101299190610e3e565b61055e565b005b610138610772565b6040516101459190610e91565b60405180910390f35b61016860048036038101906101639190610eac565b61079b565b6040516101759190610f26565b60405180910390f35b61019860048036038101906101939190610ab0565b610828565b005b6000600360008373ffffffffffffffffffffffffffffffffffffffff1673ffffffffffffffffffffffffffffffffffffffff168152602001908152602001600020549050919050565b6000806101ee6108ae565b7f000000000000000000000000000000000000000000000000000000000000000073ffffffffffffffffffffffffffffffffffffffff1663d204c45e89896040518363ffffffff1660e01b8152600401610249929190610fc0565b6020604051808303816000875af1158015610268573d6000803e3d6000fd5b505050506040513d601f19601f8201168201806040525081019061028c9190611005565b9150600030878787876040516102a190610a01565b6102af95949392919061105f565b604051809103906000f0801580156102cb573d6000803e3d6000fd5b50905080915060405180604001604052808481526020018373ffffffffffffffffffffffffffffffffffffffff16815250600160008581526020019081526020016000206000820151816000015560208201518160010160006101000a81548173ffffffffffffffffffffffffffffffffffffffff021916908373ffffffffffffffffffffffffffffffffffffffff160217905550905050827fa70099852e9c3325724165514adc9d6f8dd55c4708c923dbf3219c4fc6f8aefc836040516103939190610e91565b60405180910390a250965096945050505050565b8260007f000000000000000000000000000000000000000000000000000000000000000073ffffffffffffffffffffffffffffffffffffffff16636352211e836040518263ffffffff1660e01b81526004016104039190610af6565b602060405180830381865afa158015610420573d6000803e3d6000fd5b505050506040513d601f19601f8201168201806040525081019061044491906110bd565b90508073ffffffffffffffffffffffffffffffffffffffff163373ffffffffffffffffffffffffffffffffffffffff16146104b4576040517f08c379a00000000000000000000000000000000000000000000000000000000081526004016104ab9061115c565b60405180910390fd5b7f000000000000000000000000000000000000000000000000000000000000000073ffffffffffffffffffffffffffffffffffffffff166318e97fd18686866040518463ffffffff1660e01b81526004016105119392919061117c565b600060405180830381600087803b15801561052b57600080fd5b505af115801561053f573d6000803e3d6000fd5b505050505050505050565b6105526108ae565b61055c6000610935565b565b8260007f000000000000000000000000000000000000000000000000000000000000000073ffffffffffffffffffffffffffffffffffffffff16636352211e836040518263ffffffff1660e01b81526004016105ba9190610af6565b602060405180830381865afa1580156105d7573d6000803e3d6000fd5b505050506040513d601f19601f820116820180604052508101906105fb91906110bd565b90508073ffffffffffffffffffffffffffffffffffffffff163373ffffffffffffffffffffffffffffffffffffffff161461066b576040517f08c379a00000000000000000000000000000000000000000000000000000000081526004016106629061115c565b60405180910390fd5b600060016000878152602001908152602001600020604051806040016040529081600082015481526020016001820160009054906101000a900473ffffffffffffffffffffffffffffffffffffffff1673ffffffffffffffffffffffffffffffffffffffff1673ffffffffffffffffffffffffffffffffffffffff1681525050905060008160200151905060008190508073ffffffffffffffffffffffffffffffffffffffff166340c10f1988886040518363ffffffff1660e01b81526004016107369291906111ae565b600060405180830381600087803b15801561075057600080fd5b505af1158015610764573d6000803e3d6000fd5b505050505050505050505050565b60008060009054906101000a900473ffffffffffffffffffffffffffffffffffffffff16905090565b6107a3610a0e565b60016000838152602001908152602001600020604051806040016040529081600082015481526020016001820160009054906101000a900473ffffffffffffffffffffffffffffffffffffffff1673ffffffffffffffffffffffffffffffffffffffff1673ffffffffffffffffffffffffffffffffffffffff16815250509050919050565b6108306108ae565b600073ffffffffffffffffffffffffffffffffffffffff168173ffffffffffffffffffffffffffffffffffffffff16036108a25760006040517f1e4fbdf70000000000000000000000000000000000000000000000000000000081526004016108999190610e91565b60405180910390fd5b6108ab81610935565b50565b6108b66109f9565b73ffffffffffffffffffffffffffffffffffffffff166108d4610772565b73ffffffffffffffffffffffffffffffffffffffff1614610933576108f76109f9565b6040517f118cdaa700000000000000000000000000000000000000000000000000000000815260040161092a9190610e91565b60405180910390fd5b565b60008060009054906101000a900473ffffffffffffffffffffffffffffffffffffffff169050816000806101000a81548173ffffffffffffffffffffffffffffffffffffffff021916908373ffffffffffffffffffffffffffffffffffffffff1602179055508173ffffffffffffffffffffffffffffffffffffffff168173ffffffffffffffffffffffffffffffffffffffff167f8be0079c531659141344cd1fd0a4f28419497f9722a3daafe3b4186f6b6457e060405160405180910390a35050565b600033905090565b611a0c806111d883390190565b604051806040016040528060008152602001600073ffffffffffffffffffffffffffffffffffffffff1681525090565b6000604051905090565b600080fd5b600080fd5b600073ffffffffffffffffffffffffffffffffffffffff82169050919050565b6000610a7d82610a52565b9050919050565b610a8d81610a72565b8114610a9857600080fd5b50565b600081359050610aaa81610a84565b92915050565b600060208284031215610ac657610ac5610a48565b5b6000610ad484828501610a9b565b91505092915050565b6000819050919050565b610af081610add565b82525050565b6000602082019050610b0b6000830184610ae7565b92915050565b600080fd5b600080fd5b6000601f19601f8301169050919050565b7f4e487b7100000000000000000000000000000000000000000000000000000000600052604160045260246000fd5b610b6482610b1b565b810181811067ffffffffffffffff82111715610b8357610b82610b2c565b5b80604052505050565b6000610b96610a3e565b9050610ba28282610b5b565b919050565b600067ffffffffffffffff821115610bc257610bc1610b2c565b5b610bcb82610b1b565b9050602081019050919050565b82818337600083830152505050565b6000610bfa610bf584610ba7565b610b8c565b905082815260208101848484011115610c1657610c15610b16565b5b610c21848285610bd8565b509392505050565b600082601f830112610c3e57610c3d610b11565b5b8135610c4e848260208601610be7565b91505092915050565b600080fd5b600080fd5b60008083601f840112610c7757610c76610b11565b5b8235905067ffffffffffffffff811115610c9457610c93610c57565b5b602083019150836001820283011115610cb057610caf610c5c565b5b9250929050565b60008060008060008060808789031215610cd457610cd3610a48565b5b6000610ce289828a01610a9b565b965050602087013567ffffffffffffffff811115610d0357610d02610a4d565b5b610d0f89828a01610c29565b955050604087013567ffffffffffffffff811115610d3057610d2f610a4d565b5b610d3c89828a01610c61565b9450945050606087013567ffffffffffffffff811115610d5f57610d5e610a4d565b5b610d6b89828a01610c61565b92509250509295509295509295565b610d8381610a72565b82525050565b6000604082019050610d9e6000830185610ae7565b610dab6020830184610d7a565b9392505050565b610dbb81610add565b8114610dc657600080fd5b50565b600081359050610dd881610db2565b92915050565b600080600060408486031215610df757610df6610a48565b5b6000610e0586828701610dc9565b935050602084013567ffffffffffffffff811115610e2657610e25610a4d565b5b610e3286828701610c61565b92509250509250925092565b600080600060608486031215610e5757610e56610a48565b5b6000610e6586828701610dc9565b9350506020610e7686828701610a9b565b9250506040610e8786828701610dc9565b9150509250925092565b6000602082019050610ea66000830184610d7a565b92915050565b600060208284031215610ec257610ec1610a48565b5b6000610ed084828501610dc9565b91505092915050565b610ee281610add565b82525050565b610ef181610a72565b82525050565b604082016000820151610f0d6000850182610ed9565b506020820151610f206020850182610ee8565b50505050565b6000604082019050610f3b6000830184610ef7565b92915050565b600081519050919050565b600082825260208201905092915050565b60005b83811015610f7b578082015181840152602081019050610f60565b60008484015250505050565b6000610f9282610f41565b610f9c8185610f4c565b9350610fac818560208601610f5d565b610fb581610b1b565b840191505092915050565b6000604082019050610fd56000830185610d7a565b8181036020830152610fe78184610f87565b90509392505050565b600081519050610fff81610db2565b92915050565b60006020828403121561101b5761101a610a48565b5b600061102984828501610ff0565b91505092915050565b600061103e8385610f4c565b935061104b838584610bd8565b61105483610b1b565b840190509392505050565b60006060820190506110746000830188610d7a565b8181036020830152611087818688611032565b9050818103604083015261109c818486611032565b90509695505050505050565b6000815190506110b781610a84565b92915050565b6000602082840312156110d3576110d2610a48565b5b60006110e1848285016110a8565b91505092915050565b7f5468652063616c6c6572206d75737420626520746865206f776e6572206f662060008201527f74686973206167656e7400000000000000000000000000000000000000000000602082015250565b6000611146602a83610f4c565b9150611151826110ea565b604082019050919050565b6000602082019050818103600083015261117581611139565b9050919050565b60006040820190506111916000830186610ae7565b81810360208301526111a4818486611032565b9050949350505050565b60006040820190506111c36000830185610d7a565b6111d06020830184610ae7565b939250505056fe608060405234801561001057600080fd5b50604051611a0c380380611a0c8339818101604052810190610032919061037a565b82828281600390816100449190610626565b5080600490816100549190610626565b505050600073ffffffffffffffffffffffffffffffffffffffff168173ffffffffffffffffffffffffffffffffffffffff16036100c95760006040517f1e4fbdf70000000000000000000000000000000000000000000000000000000081526004016100c09190610707565b60405180910390fd5b6100d8816100e160201b60201c565b50505050610722565b6000600560009054906101000a900473ffffffffffffffffffffffffffffffffffffffff16905081600560006101000a81548173ffffffffffffffffffffffffffffffffffffffff021916908373ffffffffffffffffffffffffffffffffffffffff1602179055508173ffffffffffffffffffffffffffffffffffffffff168173ffffffffffffffffffffffffffffffffffffffff167f8be0079c531659141344cd1fd0a4f28419497f9722a3daafe3b4186f6b6457e060405160405180910390a35050565b6000604051905090565b600080fd5b600080fd5b600073ffffffffffffffffffffffffffffffffffffffff82169050919050565b60006101e6826101bb565b9050919050565b6101f6816101db565b811461020157600080fd5b50565b600081519050610213816101ed565b92915050565b600080fd5b600080fd5b6000601f19601f8301169050919050565b7f4e487b7100000000000000000000000000000000000000000000000000000000600052604160045260246000fd5b61026c82610223565b810181811067ffffffffffffffff8211171561028b5761028a610234565b5b80604052505050565b600061029e6101a7565b90506102aa8282610263565b919050565b600067ffffffffffffffff8211156102ca576102c9610234565b5b6102d382610223565b9050602081019050919050565b60005b838110156102fe5780820151818401526020810190506102e3565b60008484015250505050565b600061031d610318846102af565b610294565b9050828152602081018484840111156103395761033861021e565b5b6103448482856102e0565b509392505050565b600082601f83011261036157610360610219565b5b815161037184826020860161030a565b91505092915050565b600080600060608486031215610393576103926101b1565b5b60006103a186828701610204565b935050602084015167ffffffffffffffff8111156103c2576103c16101b6565b5b6103ce8682870161034c565b925050604084015167ffffffffffffffff8111156103ef576103ee6101b6565b5b6103fb8682870161034c565b9150509250925092565b600081519050919050565b7f4e487b7100000000000000000000000000000000000000000000000000000000600052602260045260246000fd5b6000600282049050600182168061045757607f821691505b60208210810361046a57610469610410565b5b50919050565b60008190508160005260206000209050919050565b60006020601f8301049050919050565b600082821b905092915050565b6000600883026104d27fffffffffffffffffffffffffffffffffffffffffffffffffffffffffffffffff82610495565b6104dc8683610495565b95508019841693508086168417925050509392505050565b6000819050919050565b6000819050919050565b600061052361051e610519846104f4565b6104fe565b6104f4565b9050919050565b6000819050919050565b61053d83610508565b6105516105498261052a565b8484546104a2565b825550505050565b600090565b610566610559565b610571818484610534565b505050565b5b818110156105955761058a60008261055e565b600181019050610577565b5050565b601f8211156105da576105ab81610470565b6105b484610485565b810160208510156105c3578190505b6105d76105cf85610485565b830182610576565b50505b505050565b600082821c905092915050565b60006105fd600019846008026105df565b1980831691505092915050565b600061061683836105ec565b9150826002028217905092915050565b61062f82610405565b67ffffffffffffffff81111561064857610647610234565b5b610652825461043f565b61065d828285610599565b600060209050601f831160018114610690576000841561067e578287015190505b610688858261060a565b8655506106f0565b601f19841661069e86610470565b60005b828110156106c6578489015182556001820191506020850194506020810190506106a1565b868310156106e357848901516106df601f8916826105ec565b8355505b6001600288020188555050505b505050505050565b610701816101db565b82525050565b600060208201905061071c60008301846106f8565b92915050565b6112db806107316000396000f3fe608060405234801561001057600080fd5b50600436106100f55760003560e01c806370a082311161009757806395d89b411161006657806395d89b4114610260578063a9059cbb1461027e578063dd62ed3e146102ae578063f2fde38b146102de576100f5565b806370a08231146101ec578063715018a61461021c57806379cc6790146102265780638da5cb5b14610242576100f5565b806323b872dd116100d357806323b872dd14610166578063313ce5671461019657806340c10f19146101b457806342966c68146101d0576100f5565b806306fdde03146100fa578063095ea7b31461011857806318160ddd14610148575b600080fd5b6101026102fa565b60405161010f9190610f02565b60405180910390f35b610132600480360381019061012d9190610fbd565b61038c565b60405161013f9190611018565b60405180910390f35b6101506103af565b60405161015d9190611042565b60405180910390f35b610180600480360381019061017b919061105d565b6103b9565b60405161018d9190611018565b60405180910390f35b61019e6103e8565b6040516101ab91906110cc565b60405180910390f35b6101ce60048036038101906101c99190610fbd565b6103f1565b005b6101ea60048036038101906101e591906110e7565b610407565b005b61020660048036038101906102019190611114565b61041b565b6040516102139190611042565b60405180910390f35b610224610463565b005b610240600480360381019061023b9190610fbd565b610477565b005b61024a610497565b6040516102579190611150565b60405180910390f35b6102686104c1565b6040516102759190610f02565b60405180910390f35b61029860048036038101906102939190610fbd565b610553565b6040516102a59190611018565b60405180910390f35b6102c860048036038101906102c3919061116b565b610576565b6040516102d59190611042565b60405180910390f35b6102f860048036038101906102f39190611114565b6105fd565b005b606060038054610309906111da565b80601f0160208091040260200160405190810160405280929190818152602001828054610335906111da565b80156103825780601f1061035757610100808354040283529160200191610382565b820191906000526020600020905b81548152906001019060200180831161036557829003601f168201915b5050505050905090565b600080610397610683565b90506103a481858561068b565b600191505092915050565b6000600254905090565b6000806103c4610683565b90506103d185828561069d565b6103dc858585610731565b60019150509392505050565b60006012905090565b6103f9610825565b61040382826108ac565b5050565b610418610412610683565b8261092e565b50565b60008060008373ffffffffffffffffffffffffffffffffffffffff1673ffffffffffffffffffffffffffffffffffffffff168152602001908152602001600020549050919050565b61046b610825565b61047560006109b0565b565b61048982610483610683565b8361069d565b610493828261092e565b5050565b6000600560009054906101000a900473ffffffffffffffffffffffffffffffffffffffff16905090565b6060600480546104d0906111da565b80601f01602080910402602001604051908101604052809291908181526020018280546104fc906111da565b80156105495780601f1061051e57610100808354040283529160200191610549565b820191906000526020600020905b81548152906001019060200180831161052c57829003601f168201915b5050505050905090565b60008061055e610683565b905061056b818585610731565b600191505092915050565b6000600160008473ffffffffffffffffffffffffffffffffffffffff1673ffffffffffffffffffffffffffffffffffffffff16815260200190815260200160002060008373ffffffffffffffffffffffffffffffffffffffff1673ffffffffffffffffffffffffffffffffffffffff16815260200190815260200160002054905092915050565b610605610825565b600073ffffffffffffffffffffffffffffffffffffffff168173ffffffffffffffffffffffffffffffffffffffff16036106775760006040517f1e4fbdf700000000000000000000000000000000000000000000000000000000815260040161066e9190611150565b60405180910390fd5b610680816109b0565b50565b600033905090565b6106988383836001610a76565b505050565b60006106a98484610576565b90507fffffffffffffffffffffffffffffffffffffffffffffffffffffffffffffffff811461072b578181101561071b578281836040517ffb8f41b20000000000000000000000000000000000000000000000000000000081526004016107129392919061120b565b60405180910390fd5b61072a84848484036000610a76565b5b50505050565b600073ffffffffffffffffffffffffffffffffffffffff168373ffffffffffffffffffffffffffffffffffffffff16036107a35760006040517f96c6fd1e00000000000000000000000000000000000000000000000000000000815260040161079a9190611150565b60405180910390fd5b600073ffffffffffffffffffffffffffffffffffffffff168273ffffffffffffffffffffffffffffffffffffffff16036108155760006040517fec442f0500000000000000000000000000000000000000000000000000000000815260040161080c9190611150565b60405180910390fd5b610820838383610c4d565b505050565b61082d610683565b73ffffffffffffffffffffffffffffffffffffffff1661084b610497565b73ffffffffffffffffffffffffffffffffffffffff16146108aa5761086e610683565b6040517f118cdaa70000000000000000000000000000000000000000000000000000000081526004016108a19190611150565b60405180910390fd5b565b600073ffffffffffffffffffffffffffffffffffffffff168273ffffffffffffffffffffffffffffffffffffffff160361091e5760006040517fec442f050000000000000000000000000000000000000000000000000000000081526004016109159190611150565b60405180910390fd5b61092a60008383610c4d565b5050565b600073ffffffffffffffffffffffffffffffffffffffff168273ffffffffffffffffffffffffffffffffffffffff16036109a05760006040517f96c6fd1e0000000000000000000000000000000000000000000000000000000081526004016109979190611150565b60405180910390fd5b6109ac82600083610c4d565b5050565b6000600560009054906101000a900473ffffffffffffffffffffffffffffffffffffffff16905081600560006101000a81548173ffffffffffffffffffffffffffffffffffffffff021916908373ffffffffffffffffffffffffffffffffffffffff1602179055508173ffffffffffffffffffffffffffffffffffffffff168173ffffffffffffffffffffffffffffffffffffffff167f8be0079c531659141344cd1fd0a4f28419497f9722a3daafe3b4186f6b6457e060405160405180910390a35050565b600073ffffffffffffffffffffffffffffffffffffffff168473ffffffffffffffffffffffffffffffffffffffff1603610ae85760006040517fe602df05000000000000000000000000000000000000000000000000000000008152600401610adf9190611150565b60405180910390fd5b600073ffffffffffffffffffffffffffffffffffffffff168373ffffffffffffffffffffffffffffffffffffffff1603610b5a5760006040517f94280d62000000000000000000000000000000000000000000000000000000008152600401610b519190611150565b60405180910390fd5b81600160008673ffffffffffffffffffffffffffffffffffffffff1673ffffffffffffffffffffffffffffffffffffffff16815260200190815260200160002060008573ffffffffffffffffffffffffffffffffffffffff1673ffffffffffffffffffffffffffffffffffffffff168152602001908152602001600020819055508015610c47578273ffffffffffffffffffffffffffffffffffffffff168473ffffffffffffffffffffffffffffffffffffffff167f8c5be1e5ebec7d5bd14f71427d1e84f3dd0314c0f7b2291e5b200ac8c7c3b92584604051610c3e9190611042565b60405180910390a35b50505050565b600073ffffffffffffffffffffffffffffffffffffffff168373ffffffffffffffffffffffffffffffffffffffff1603610c9f578060026000828254610c939190611271565b92505081905550610d72565b60008060008573ffffffffffffffffffffffffffffffffffffffff1673ffffffffffffffffffffffffffffffffffffffff16815260200190815260200160002054905081811015610d2b578381836040517fe450d38c000000000000000000000000000000000000000000000000000000008152600401610d229392919061120b565b60405180910390fd5b8181036000808673ffffffffffffffffffffffffffffffffffffffff1673ffffffffffffffffffffffffffffffffffffffff16815260200190815260200160002081905550505b600073ffffffffffffffffffffffffffffffffffffffff168273ffffffffffffffffffffffffffffffffffffffff1603610dbb5780600260008282540392505081905550610e08565b806000808473ffffffffffffffffffffffffffffffffffffffff1673ffffffffffffffffffffffffffffffffffffffff168152602001908152602001600020600082825401925050819055505b8173ffffffffffffffffffffffffffffffffffffffff168373ffffffffffffffffffffffffffffffffffffffff167fddf252ad1be2c89b69c2b068fc378daa952ba7f163c4a11628f55a4df523b3ef83604051610e659190611042565b60405180910390a3505050565b600081519050919050565b600082825260208201905092915050565b60005b83811015610eac578082015181840152602081019050610e91565b60008484015250505050565b6000601f19601f8301169050919050565b6000610ed482610e72565b610ede8185610e7d565b9350610eee818560208601610e8e565b610ef781610eb8565b840191505092915050565b60006020820190508181036000830152610f1c8184610ec9565b905092915050565b600080fd5b600073ffffffffffffffffffffffffffffffffffffffff82169050919050565b6000610f5482610f29565b9050919050565b610f6481610f49565b8114610f6f57600080fd5b50565b600081359050610f8181610f5b565b92915050565b6000819050919050565b610f9a81610f87565b8114610fa557600080fd5b50565b600081359050610fb781610f91565b92915050565b60008060408385031215610fd457610fd3610f24565b5b6000610fe285828601610f72565b9250506020610ff385828601610fa8565b9150509250929050565b60008115159050919050565b61101281610ffd565b82525050565b600060208201905061102d6000830184611009565b92915050565b61103c81610f87565b82525050565b60006020820190506110576000830184611033565b92915050565b60008060006060848603121561107657611075610f24565b5b600061108486828701610f72565b935050602061109586828701610f72565b92505060406110a686828701610fa8565b9150509250925092565b600060ff82169050919050565b6110c6816110b0565b82525050565b60006020820190506110e160008301846110bd565b92915050565b6000602082840312156110fd576110fc610f24565b5b600061110b84828501610fa8565b91505092915050565b60006020828403121561112a57611129610f24565b5b600061113884828501610f72565b91505092915050565b61114a81610f49565b82525050565b60006020820190506111656000830184611141565b92915050565b6000806040838503121561118257611181610f24565b5b600061119085828601610f72565b92505060206111a185828601610f72565b9150509250929050565b7f4e487b7100000000000000000000000000000000000000000000000000000000600052602260045260246000fd5b600060028204905060018216806111f257607f821691505b602082108103611205576112046111ab565b5b50919050565b60006060820190506112206000830186611141565b61122d6020830185611033565b61123a6040830184611033565b949350505050565b7f4e487b7100000000000000000000000000000000000000000000000000000000600052601160045260246000fd5b600061127c82610f87565b915061128783610f87565b925082820190508082111561129f5761129e611242565b5b9291505056fea26469706673582212207771d29590f915d3071a9f2057e68b63c61d427874c2b0f4f2b541a63c47f62c64736f6c634300081c0033a2646970667358221220cec495f6b23445270704b6859bb7f0cc1a546cfc4f489d6d99f09c6f48e8ee9564736f6c634300081c0033",
  "linkReferences": {},
  "deployedLinkReferences": {}
}